{
    "_format": "hh-sol-artifact-1",
    "contractName": "FestivalGreetings",
    "sourceName": "contracts/Festify.sol",
    "abi": [
        {
            "inputs": [],
            "stateMutability": "nonpayable",
            "type": "constructor"
        },
        {
            "inputs": [],
            "name": "ERC721EnumerableForbiddenBatchMint",
            "type": "error"
        },
        {
            "inputs": [
                {
                    "internalType": "address",
                    "name": "sender",
                    "type": "address"
                },
                {
                    "internalType": "uint256",
                    "name": "tokenId",
                    "type": "uint256"
                },
                {
                    "internalType": "address",
                    "name": "owner",
                    "type": "address"
                }
            ],
            "name": "ERC721IncorrectOwner",
            "type": "error"
        },
        {
            "inputs": [
                {
                    "internalType": "address",
                    "name": "operator",
                    "type": "address"
                },
                {
                    "internalType": "uint256",
                    "name": "tokenId",
                    "type": "uint256"
                }
            ],
            "name": "ERC721InsufficientApproval",
            "type": "error"
        },
        {
            "inputs": [
                {
                    "internalType": "address",
                    "name": "approver",
                    "type": "address"
                }
            ],
            "name": "ERC721InvalidApprover",
            "type": "error"
        },
        {
            "inputs": [
                {
                    "internalType": "address",
                    "name": "operator",
                    "type": "address"
                }
            ],
            "name": "ERC721InvalidOperator",
            "type": "error"
        },
        {
            "inputs": [
                {
                    "internalType": "address",
                    "name": "owner",
                    "type": "address"
                }
            ],
            "name": "ERC721InvalidOwner",
            "type": "error"
        },
        {
            "inputs": [
                {
                    "internalType": "address",
                    "name": "receiver",
                    "type": "address"
                }
            ],
            "name": "ERC721InvalidReceiver",
            "type": "error"
        },
        {
            "inputs": [
                {
                    "internalType": "address",
                    "name": "sender",
                    "type": "address"
                }
            ],
            "name": "ERC721InvalidSender",
            "type": "error"
        },
        {
            "inputs": [
                {
                    "internalType": "uint256",
                    "name": "tokenId",
                    "type": "uint256"
                }
            ],
            "name": "ERC721NonexistentToken",
            "type": "error"
        },
        {
            "inputs": [
                {
                    "internalType": "address",
                    "name": "owner",
                    "type": "address"
                },
                {
                    "internalType": "uint256",
                    "name": "index",
                    "type": "uint256"
                }
            ],
            "name": "ERC721OutOfBoundsIndex",
            "type": "error"
        },
        {
            "inputs": [
                {
                    "internalType": "address",
                    "name": "owner",
                    "type": "address"
                }
            ],
            "name": "OwnableInvalidOwner",
            "type": "error"
        },
        {
            "inputs": [
                {
                    "internalType": "address",
                    "name": "account",
                    "type": "address"
                }
            ],
            "name": "OwnableUnauthorizedAccount",
            "type": "error"
        },
        {
            "anonymous": false,
            "inputs": [
                {
                    "indexed": true,
                    "internalType": "address",
                    "name": "owner",
                    "type": "address"
                },
                {
                    "indexed": true,
                    "internalType": "address",
                    "name": "approved",
                    "type": "address"
                },
                {
                    "indexed": true,
                    "internalType": "uint256",
                    "name": "tokenId",
                    "type": "uint256"
                }
            ],
            "name": "Approval",
            "type": "event"
        },
        {
            "anonymous": false,
            "inputs": [
                {
                    "indexed": true,
                    "internalType": "address",
                    "name": "owner",
                    "type": "address"
                },
                {
                    "indexed": true,
                    "internalType": "address",
                    "name": "operator",
                    "type": "address"
                },
                {
                    "indexed": false,
                    "internalType": "bool",
                    "name": "approved",
                    "type": "bool"
                }
            ],
            "name": "ApprovalForAll",
            "type": "event"
        },
        {
            "anonymous": false,
            "inputs": [
                {
                    "indexed": false,
                    "internalType": "uint256",
                    "name": "_fromTokenId",
                    "type": "uint256"
                },
                {
                    "indexed": false,
                    "internalType": "uint256",
                    "name": "_toTokenId",
                    "type": "uint256"
                }
            ],
            "name": "BatchMetadataUpdate",
            "type": "event"
        },
        {
            "anonymous": false,
            "inputs": [
                {
                    "indexed": true,
                    "internalType": "uint256",
                    "name": "tokenId",
                    "type": "uint256"
                },
                {
                    "indexed": true,
                    "internalType": "address",
                    "name": "sender",
                    "type": "address"
                },
                {
                    "indexed": true,
                    "internalType": "address",
                    "name": "recipient",
                    "type": "address"
                },
                {
                    "indexed": false,
                    "internalType": "string",
                    "name": "festival",
                    "type": "string"
                },
                {
                    "indexed": false,
                    "internalType": "string",
                    "name": "metadataURI",
                    "type": "string"
                }
            ],
            "name": "GreetingCardMinted",
            "type": "event"
        },
        {
            "anonymous": false,
            "inputs": [
                {
                    "indexed": false,
                    "internalType": "uint256",
                    "name": "_tokenId",
                    "type": "uint256"
                }
            ],
            "name": "MetadataUpdate",
            "type": "event"
        },
        {
            "anonymous": false,
            "inputs": [
                {
                    "indexed": true,
                    "internalType": "address",
                    "name": "previousOwner",
                    "type": "address"
                },
                {
                    "indexed": true,
                    "internalType": "address",
                    "name": "newOwner",
                    "type": "address"
                }
            ],
            "name": "OwnershipTransferred",
            "type": "event"
        },
        {
            "anonymous": false,
            "inputs": [
                {
                    "indexed": true,
                    "internalType": "address",
                    "name": "from",
                    "type": "address"
                },
                {
                    "indexed": true,
                    "internalType": "address",
                    "name": "to",
                    "type": "address"
                },
                {
                    "indexed": true,
                    "internalType": "uint256",
                    "name": "tokenId",
                    "type": "uint256"
                }
            ],
            "name": "Transfer",
            "type": "event"
        },
        {
            "inputs": [
                {
                    "internalType": "address",
                    "name": "to",
                    "type": "address"
                },
                {
                    "internalType": "uint256",
                    "name": "tokenId",
                    "type": "uint256"
                }
            ],
            "name": "approve",
            "outputs": [],
            "stateMutability": "nonpayable",
            "type": "function"
        },
        {
            "inputs": [
                {
                    "internalType": "address",
                    "name": "owner",
                    "type": "address"
                }
            ],
            "name": "balanceOf",
            "outputs": [
                {
                    "internalType": "uint256",
                    "name": "",
                    "type": "uint256"
                }
            ],
            "stateMutability": "view",
            "type": "function"
        },
        {
            "inputs": [
                {
                    "internalType": "uint256",
                    "name": "tokenId",
                    "type": "uint256"
                }
            ],
            "name": "getApproved",
            "outputs": [
                {
                    "internalType": "address",
                    "name": "",
                    "type": "address"
                }
            ],
            "stateMutability": "view",
            "type": "function"
        },
        {
            "inputs": [
                {
                    "internalType": "uint256",
                    "name": "tokenId",
                    "type": "uint256"
                }
            ],
            "name": "getGreetingFestival",
            "outputs": [
                {
                    "internalType": "string",
                    "name": "",
                    "type": "string"
                }
            ],
            "stateMutability": "view",
            "type": "function"
        },
        {
            "inputs": [
                {
                    "internalType": "uint256",
                    "name": "tokenId",
                    "type": "uint256"
                }
            ],
            "name": "getGreetingSender",
            "outputs": [
                {
                    "internalType": "address",
                    "name": "",
                    "type": "address"
                }
            ],
            "stateMutability": "view",
            "type": "function"
        },
        {
            "inputs": [
                {
                    "internalType": "address",
                    "name": "recipient",
                    "type": "address"
                }
            ],
            "name": "getReceivedGreetings",
            "outputs": [
                {
                    "internalType": "uint256[]",
                    "name": "",
                    "type": "uint256[]"
                }
            ],
            "stateMutability": "view",
            "type": "function"
        },
        {
            "inputs": [
                {
                    "internalType": "address",
                    "name": "sender",
                    "type": "address"
                }
            ],
            "name": "getSentGreetings",
            "outputs": [
                {
                    "internalType": "uint256[]",
                    "name": "",
                    "type": "uint256[]"
                }
            ],
            "stateMutability": "view",
            "type": "function"
        },
        {
            "inputs": [
                {
                    "internalType": "address",
                    "name": "owner",
                    "type": "address"
                },
                {
                    "internalType": "address",
                    "name": "operator",
                    "type": "address"
                }
            ],
            "name": "isApprovedForAll",
            "outputs": [
                {
                    "internalType": "bool",
                    "name": "",
                    "type": "bool"
                }
            ],
            "stateMutability": "view",
            "type": "function"
        },
        {
            "inputs": [],
            "name": "mintFee",
            "outputs": [
                {
                    "internalType": "uint256",
                    "name": "",
                    "type": "uint256"
                }
            ],
            "stateMutability": "view",
            "type": "function"
        },
        {
            "inputs": [
                {
                    "internalType": "address",
                    "name": "recipient",
                    "type": "address"
                },
                {
                    "internalType": "string",
                    "name": "metadataURI",
                    "type": "string"
                },
                {
                    "internalType": "string",
                    "name": "festival",
                    "type": "string"
                }
            ],
            "name": "mintGreetingCard",
            "outputs": [
                {
                    "internalType": "uint256",
                    "name": "",
                    "type": "uint256"
                }
            ],
            "stateMutability": "payable",
            "type": "function"
        },
        {
            "inputs": [],
            "name": "name",
            "outputs": [
                {
                    "internalType": "string",
                    "name": "",
                    "type": "string"
                }
            ],
            "stateMutability": "view",
            "type": "function"
        },
        {
            "inputs": [],
            "name": "owner",
            "outputs": [
                {
                    "internalType": "address",
                    "name": "",
                    "type": "address"
                }
            ],
            "stateMutability": "view",
            "type": "function"
        },
        {
            "inputs": [
                {
                    "internalType": "uint256",
                    "name": "tokenId",
                    "type": "uint256"
                }
            ],
            "name": "ownerOf",
            "outputs": [
                {
                    "internalType": "address",
                    "name": "",
                    "type": "address"
                }
            ],
            "stateMutability": "view",
            "type": "function"
        },
        {
            "inputs": [],
            "name": "renounceOwnership",
            "outputs": [],
            "stateMutability": "nonpayable",
            "type": "function"
        },
        {
            "inputs": [
                {
                    "internalType": "address",
                    "name": "from",
                    "type": "address"
                },
                {
                    "internalType": "address",
                    "name": "to",
                    "type": "address"
                },
                {
                    "internalType": "uint256",
                    "name": "tokenId",
                    "type": "uint256"
                }
            ],
            "name": "safeTransferFrom",
            "outputs": [],
            "stateMutability": "nonpayable",
            "type": "function"
        },
        {
            "inputs": [
                {
                    "internalType": "address",
                    "name": "from",
                    "type": "address"
                },
                {
                    "internalType": "address",
                    "name": "to",
                    "type": "address"
                },
                {
                    "internalType": "uint256",
                    "name": "tokenId",
                    "type": "uint256"
                },
                {
                    "internalType": "bytes",
                    "name": "data",
                    "type": "bytes"
                }
            ],
            "name": "safeTransferFrom",
            "outputs": [],
            "stateMutability": "nonpayable",
            "type": "function"
        },
        {
            "inputs": [
                {
                    "internalType": "address",
                    "name": "operator",
                    "type": "address"
                },
                {
                    "internalType": "bool",
                    "name": "approved",
                    "type": "bool"
                }
            ],
            "name": "setApprovalForAll",
            "outputs": [],
            "stateMutability": "nonpayable",
            "type": "function"
        },
        {
            "inputs": [
                {
                    "internalType": "uint256",
                    "name": "newFee",
                    "type": "uint256"
                }
            ],
            "name": "setMintFee",
            "outputs": [],
            "stateMutability": "nonpayable",
            "type": "function"
        },
        {
            "inputs": [
                {
                    "internalType": "bytes4",
                    "name": "interfaceId",
                    "type": "bytes4"
                }
            ],
            "name": "supportsInterface",
            "outputs": [
                {
                    "internalType": "bool",
                    "name": "",
                    "type": "bool"
                }
            ],
            "stateMutability": "view",
            "type": "function"
        },
        {
            "inputs": [],
            "name": "symbol",
            "outputs": [
                {
                    "internalType": "string",
                    "name": "",
                    "type": "string"
                }
            ],
            "stateMutability": "view",
            "type": "function"
        },
        {
            "inputs": [
                {
                    "internalType": "uint256",
                    "name": "index",
                    "type": "uint256"
                }
            ],
            "name": "tokenByIndex",
            "outputs": [
                {
                    "internalType": "uint256",
                    "name": "",
                    "type": "uint256"
                }
            ],
            "stateMutability": "view",
            "type": "function"
        },
        {
            "inputs": [
                {
                    "internalType": "address",
                    "name": "owner",
                    "type": "address"
                },
                {
                    "internalType": "uint256",
                    "name": "index",
                    "type": "uint256"
                }
            ],
            "name": "tokenOfOwnerByIndex",
            "outputs": [
                {
                    "internalType": "uint256",
                    "name": "",
                    "type": "uint256"
                }
            ],
            "stateMutability": "view",
            "type": "function"
        },
        {
            "inputs": [
                {
                    "internalType": "uint256",
                    "name": "tokenId",
                    "type": "uint256"
                }
            ],
            "name": "tokenURI",
            "outputs": [
                {
                    "internalType": "string",
                    "name": "",
                    "type": "string"
                }
            ],
            "stateMutability": "view",
            "type": "function"
        },
        {
            "inputs": [],
            "name": "totalSupply",
            "outputs": [
                {
                    "internalType": "uint256",
                    "name": "",
                    "type": "uint256"
                }
            ],
            "stateMutability": "view",
            "type": "function"
        },
        {
            "inputs": [
                {
                    "internalType": "address",
                    "name": "from",
                    "type": "address"
                },
                {
                    "internalType": "address",
                    "name": "to",
                    "type": "address"
                },
                {
                    "internalType": "uint256",
                    "name": "tokenId",
                    "type": "uint256"
                }
            ],
            "name": "transferFrom",
            "outputs": [],
            "stateMutability": "nonpayable",
            "type": "function"
        },
        {
            "inputs": [
                {
                    "internalType": "address",
                    "name": "newOwner",
                    "type": "address"
                }
            ],
            "name": "transferOwnership",
            "outputs": [],
            "stateMutability": "nonpayable",
            "type": "function"
        },
        {
            "inputs": [],
            "name": "withdraw",
            "outputs": [],
            "stateMutability": "nonpayable",
            "type": "function"
        }
    ],
    "bytecode": "0x60806040526001600c55662386f26fc100006011553480156200002157600080fd5b50336040518060400160405280601281526020017f466573746976616c204772656574696e677300000000000000000000000000008152506040518060400160405280600481526020017f46475254000000000000000000000000000000000000000000000000000000008152508160009081620000a09190620005b9565b508060019081620000b29190620005b9565b505050600073ffffffffffffffffffffffffffffffffffffffff168173ffffffffffffffffffffffffffffffffffffffff16036200012a5760006040517f1e4fbdf7000000000000000000000000000000000000000000000000000000008152600401620001219190620006e5565b60405180910390fd5b6200013b816200016c60201b60201c565b5062000166604051806060016040528060298152602001620044b2602991396200023260201b60201c565b620007e4565b6000600b60009054906101000a900473ffffffffffffffffffffffffffffffffffffffff16905081600b60006101000a81548173ffffffffffffffffffffffffffffffffffffffff021916908373ffffffffffffffffffffffffffffffffffffffff1602179055508173ffffffffffffffffffffffffffffffffffffffff168173ffffffffffffffffffffffffffffffffffffffff167f8be0079c531659141344cd1fd0a4f28419497f9722a3daafe3b4186f6b6457e060405160405180910390a35050565b620002d28160405160240162000249919062000791565b6040516020818303038152906040527f41304fac000000000000000000000000000000000000000000000000000000007bffffffffffffffffffffffffffffffffffffffffffffffffffffffff19166020820180517bffffffffffffffffffffffffffffffffffffffffffffffffffffffff8381831617835250505050620002d560201b60201c565b50565b620002fb81620002f6620002fe60201b6200143e176200031f60201b60201c565b60201c565b50565b60006a636f6e736f6c652e6c6f679050600080835160208501845afa505050565b6200033360201b62002a8117819050919050565b6200033d620007b5565b565b600081519050919050565b7f4e487b7100000000000000000000000000000000000000000000000000000000600052604160045260246000fd5b7f4e487b7100000000000000000000000000000000000000000000000000000000600052602260045260246000fd5b60006002820490506001821680620003c157607f821691505b602082108103620003d757620003d662000379565b5b50919050565b60008190508160005260206000209050919050565b60006020601f8301049050919050565b600082821b905092915050565b600060088302620004417fffffffffffffffffffffffffffffffffffffffffffffffffffffffffffffffff8262000402565b6200044d868362000402565b95508019841693508086168417925050509392505050565b6000819050919050565b6000819050919050565b60006200049a620004946200048e8462000465565b6200046f565b62000465565b9050919050565b6000819050919050565b620004b68362000479565b620004ce620004c582620004a1565b8484546200040f565b825550505050565b600090565b620004e5620004d6565b620004f2818484620004ab565b505050565b5b818110156200051a576200050e600082620004db565b600181019050620004f8565b5050565b601f82111562000569576200053381620003dd565b6200053e84620003f2565b810160208510156200054e578190505b620005666200055d85620003f2565b830182620004f7565b50505b505050565b600082821c905092915050565b60006200058e600019846008026200056e565b1980831691505092915050565b6000620005a983836200057b565b9150826002028217905092915050565b620005c4826200033f565b67ffffffffffffffff811115620005e057620005df6200034a565b5b620005ec8254620003a8565b620005f98282856200051e565b600060209050601f8311600181146200063157600084156200061c578287015190505b6200062885826200059b565b86555062000698565b601f1984166200064186620003dd565b60005b828110156200066b5784890151825560018201915060208501945060208101905062000644565b868310156200068b578489015162000687601f8916826200057b565b8355505b6001600288020188555050505b505050505050565b600073ffffffffffffffffffffffffffffffffffffffff82169050919050565b6000620006cd82620006a0565b9050919050565b620006df81620006c0565b82525050565b6000602082019050620006fc6000830184620006d4565b92915050565b600082825260208201905092915050565b60005b838110156200073357808201518184015260208101905062000716565b60008484015250505050565b6000601f19601f8301169050919050565b60006200075d826200033f565b62000769818562000702565b93506200077b81856020860162000713565b62000786816200073f565b840191505092915050565b60006020820190508181036000830152620007ad818462000750565b905092915050565b7f4e487b7100000000000000000000000000000000000000000000000000000000600052605160045260246000fd5b613cbe80620007f46000396000f3fe60806040526004361061019c5760003560e01c806370a08231116100ec578063b88d4fde1161008a578063c87b56dd11610064578063c87b56dd14610605578063e985e9c514610642578063eddd0d9c1461067f578063f2fde38b146106a85761019c565b8063b88d4fde1461056f578063be9213f514610598578063c7d2d829146105d55761019c565b806395d89b41116100c657806395d89b41146104a1578063a22cb465146104cc578063a2ca7a7d146104f5578063b31710e5146105325761019c565b806370a0823114610422578063715018a61461045f5780638da5cb5b146104765761019c565b806323b872dd116101595780633ccfd60b116101335780633ccfd60b1461036857806342842e0e1461037f5780634f6ccce7146103a85780636352211e146103e55761019c565b806323b872dd146102c55780632f745c59146102ee57806331d8157c1461032b5761019c565b806301ffc9a7146101a157806306fdde03146101de578063081812fc14610209578063095ea7b31461024657806313966db51461026f57806318160ddd1461029a575b600080fd5b3480156101ad57600080fd5b506101c860048036038101906101c39190612af7565b6106d1565b6040516101d59190612b3f565b60405180910390f35b3480156101ea57600080fd5b506101f36106e3565b6040516102009190612bea565b60405180910390f35b34801561021557600080fd5b50610230600480360381019061022b9190612c42565b610775565b60405161023d9190612cb0565b60405180910390f35b34801561025257600080fd5b5061026d60048036038101906102689190612cf7565b610791565b005b34801561027b57600080fd5b506102846107a7565b6040516102919190612d46565b60405180910390f35b3480156102a657600080fd5b506102af6107ad565b6040516102bc9190612d46565b60405180910390f35b3480156102d157600080fd5b506102ec60048036038101906102e79190612d61565b6107ba565b005b3480156102fa57600080fd5b5061031560048036038101906103109190612cf7565b6108bc565b6040516103229190612d46565b60405180910390f35b34801561033757600080fd5b50610352600480360381019061034d9190612c42565b610965565b60405161035f9190612bea565b60405180910390f35b34801561037457600080fd5b5061037d610a81565b005b34801561038b57600080fd5b506103a660048036038101906103a19190612d61565b610b88565b005b3480156103b457600080fd5b506103cf60048036038101906103ca9190612c42565b610ba8565b6040516103dc9190612d46565b60405180910390f35b3480156103f157600080fd5b5061040c60048036038101906104079190612c42565b610c1e565b6040516104199190612cb0565b60405180910390f35b34801561042e57600080fd5b5061044960048036038101906104449190612db4565b610c30565b6040516104569190612d46565b60405180910390f35b34801561046b57600080fd5b50610474610cea565b005b34801561048257600080fd5b5061048b610cfe565b6040516104989190612cb0565b60405180910390f35b3480156104ad57600080fd5b506104b6610d28565b6040516104c39190612bea565b60405180910390f35b3480156104d857600080fd5b506104f360048036038101906104ee9190612e0d565b610dba565b005b34801561050157600080fd5b5061051c60048036038101906105179190612db4565b610dd0565b6040516105299190612f0b565b60405180910390f35b34801561053e57600080fd5b5061055960048036038101906105549190612db4565b610e67565b6040516105669190612f0b565b60405180910390f35b34801561057b57600080fd5b5061059660048036038101906105919190613062565b610efe565b005b3480156105a457600080fd5b506105bf60048036038101906105ba9190612c42565b610f23565b6040516105cc9190612cb0565b60405180910390f35b6105ef60048036038101906105ea9190613186565b610fd6565b6040516105fc9190612d46565b60405180910390f35b34801561061157600080fd5b5061062c60048036038101906106279190612c42565b611300565b6040516106399190612bea565b60405180910390f35b34801561064e57600080fd5b5061066960048036038101906106649190613211565b611312565b6040516106769190612b3f565b60405180910390f35b34801561068b57600080fd5b506106a660048036038101906106a19190612c42565b6113a6565b005b3480156106b457600080fd5b506106cf60048036038101906106ca9190612db4565b6113b8565b005b60006106dc8261145f565b9050919050565b6060600080546106f290613280565b80601f016020809104026020016040519081016040528092919081815260200182805461071e90613280565b801561076b5780601f106107405761010080835404028352916020019161076b565b820191906000526020600020905b81548152906001019060200180831161074e57829003601f168201915b5050505050905090565b6000610780826114d9565b5061078a82611561565b9050919050565b6107a3828261079e61159e565b6115a6565b5050565b60115481565b6000600980549050905090565b600073ffffffffffffffffffffffffffffffffffffffff168273ffffffffffffffffffffffffffffffffffffffff160361082c5760006040517f64a0ae920000000000000000000000000000000000000000000000000000000081526004016108239190612cb0565b60405180910390fd5b6000610840838361083b61159e565b6115b8565b90508373ffffffffffffffffffffffffffffffffffffffff168173ffffffffffffffffffffffffffffffffffffffff16146108b6578382826040517f64283d7b0000000000000000000000000000000000000000000000000000000081526004016108ad939291906132b1565b60405180910390fd5b50505050565b60006108c783610c30565b821061090c5782826040517fa57d13dc0000000000000000000000000000000000000000000000000000000081526004016109039291906132e8565b60405180910390fd5b600760008473ffffffffffffffffffffffffffffffffffffffff1673ffffffffffffffffffffffffffffffffffffffff168152602001908152602001600020600083815260200190815260200160002054905092915050565b6060600073ffffffffffffffffffffffffffffffffffffffff16610988836115ce565b73ffffffffffffffffffffffffffffffffffffffff16036109de576040517f08c379a00000000000000000000000000000000000000000000000000000000081526004016109d590613383565b60405180910390fd5b600d600083815260200190815260200160002080546109fc90613280565b80601f0160208091040260200160405190810160405280929190818152602001828054610a2890613280565b8015610a755780601f10610a4a57610100808354040283529160200191610a75565b820191906000526020600020905b815481529060010190602001808311610a5857829003601f168201915b50505050509050919050565b610a8961160b565b600047905060008111610ad1576040517f08c379a0000000000000000000000000000000000000000000000000000000008152600401610ac8906133ef565b60405180910390fd5b6000610adb610cfe565b73ffffffffffffffffffffffffffffffffffffffff1682604051610afe90613440565b60006040518083038185875af1925050503d8060008114610b3b576040519150601f19603f3d011682016040523d82523d6000602084013e610b40565b606091505b5050905080610b84576040517f08c379a0000000000000000000000000000000000000000000000000000000008152600401610b7b906134a1565b60405180910390fd5b5050565b610ba383838360405180602001604052806000815250610efe565b505050565b6000610bb26107ad565b8210610bf8576000826040517fa57d13dc000000000000000000000000000000000000000000000000000000008152600401610bef9291906132e8565b60405180910390fd5b60098281548110610c0c57610c0b6134c1565b5b90600052602060002001549050919050565b6000610c29826114d9565b9050919050565b60008073ffffffffffffffffffffffffffffffffffffffff168273ffffffffffffffffffffffffffffffffffffffff1603610ca35760006040517f89c62b64000000000000000000000000000000000000000000000000000000008152600401610c9a9190612cb0565b60405180910390fd5b600360008373ffffffffffffffffffffffffffffffffffffffff1673ffffffffffffffffffffffffffffffffffffffff168152602001908152602001600020549050919050565b610cf261160b565b610cfc6000611692565b565b6000600b60009054906101000a900473ffffffffffffffffffffffffffffffffffffffff16905090565b606060018054610d3790613280565b80601f0160208091040260200160405190810160405280929190818152602001828054610d6390613280565b8015610db05780601f10610d8557610100808354040283529160200191610db0565b820191906000526020600020905b815481529060010190602001808311610d9357829003601f168201915b5050505050905090565b610dcc610dc561159e565b8383611758565b5050565b6060601060008373ffffffffffffffffffffffffffffffffffffffff1673ffffffffffffffffffffffffffffffffffffffff168152602001908152602001600020805480602002602001604051908101604052809291908181526020018280548015610e5b57602002820191906000526020600020905b815481526020019060010190808311610e47575b50505050509050919050565b6060600f60008373ffffffffffffffffffffffffffffffffffffffff1673ffffffffffffffffffffffffffffffffffffffff168152602001908152602001600020805480602002602001604051908101604052809291908181526020018280548015610ef257602002820191906000526020600020905b815481526020019060010190808311610ede575b50505050509050919050565b610f098484846107ba565b610f1d610f1461159e565b858585856118c7565b50505050565b60008073ffffffffffffffffffffffffffffffffffffffff16610f45836115ce565b73ffffffffffffffffffffffffffffffffffffffff1603610f9b576040517f08c379a0000000000000000000000000000000000000000000000000000000008152600401610f9290613562565b60405180910390fd5b600e600083815260200190815260200160002060009054906101000a900473ffffffffffffffffffffffffffffffffffffffff169050919050565b60008073ffffffffffffffffffffffffffffffffffffffff168473ffffffffffffffffffffffffffffffffffffffff1603611046576040517f08c379a000000000000000000000000000000000000000000000000000000000815260040161103d906135ce565b60405180910390fd5b600083511161108a576040517f08c379a00000000000000000000000000000000000000000000000000000000081526004016110819061363a565b60405180910390fd5b60008251116110ce576040517f08c379a00000000000000000000000000000000000000000000000000000000081526004016110c5906136a6565b60405180910390fd5b6000601154111561111f5760115434101561111e576040517f08c379a000000000000000000000000000000000000000000000000000000000815260040161111590613738565b60405180910390fd5b5b6000600c600081548092919061113490613787565b9190505590506111448582611a78565b61114e8185611a96565b82600d6000838152602001908152602001600020908161116e919061397b565b5033600e600083815260200190815260200160002060006101000a81548173ffffffffffffffffffffffffffffffffffffffff021916908373ffffffffffffffffffffffffffffffffffffffff160217905550600f60003373ffffffffffffffffffffffffffffffffffffffff1673ffffffffffffffffffffffffffffffffffffffff168152602001908152602001600020819080600181540180825580915050600190039060005260206000200160009091909190915055601060008673ffffffffffffffffffffffffffffffffffffffff1673ffffffffffffffffffffffffffffffffffffffff1681526020019081526020016000208190806001815401808255809150506001900390600052602060002001600090919091909150558473ffffffffffffffffffffffffffffffffffffffff163373ffffffffffffffffffffffffffffffffffffffff16827f168dc30a28dbc5a789540a4dbab835b14157ea79c259e1ea1d99a082ca68d47786886040516112ed929190613a4d565b60405180910390a4809150509392505050565b606061130b82611af2565b9050919050565b6000600560008473ffffffffffffffffffffffffffffffffffffffff1673ffffffffffffffffffffffffffffffffffffffff16815260200190815260200160002060008373ffffffffffffffffffffffffffffffffffffffff1673ffffffffffffffffffffffffffffffffffffffff16815260200190815260200160002060009054906101000a900460ff16905092915050565b6113ae61160b565b8060118190555050565b6113c061160b565b600073ffffffffffffffffffffffffffffffffffffffff168173ffffffffffffffffffffffffffffffffffffffff16036114325760006040517f1e4fbdf70000000000000000000000000000000000000000000000000000000081526004016114299190612cb0565b60405180910390fd5b61143b81611692565b50565b60006a636f6e736f6c652e6c6f679050600080835160208501845afa505050565b60007f780e9d63000000000000000000000000000000000000000000000000000000007bffffffffffffffffffffffffffffffffffffffffffffffffffffffff1916827bffffffffffffffffffffffffffffffffffffffffffffffffffffffff191614806114d257506114d182611c05565b5b9050919050565b6000806114e5836115ce565b9050600073ffffffffffffffffffffffffffffffffffffffff168173ffffffffffffffffffffffffffffffffffffffff160361155857826040517f7e27328900000000000000000000000000000000000000000000000000000000815260040161154f9190612d46565b60405180910390fd5b80915050919050565b60006004600083815260200190815260200160002060009054906101000a900473ffffffffffffffffffffffffffffffffffffffff169050919050565b600033905090565b6115b38383836001611c66565b505050565b60006115c5848484611e2b565b90509392505050565b60006002600083815260200190815260200160002060009054906101000a900473ffffffffffffffffffffffffffffffffffffffff169050919050565b61161361159e565b73ffffffffffffffffffffffffffffffffffffffff16611631610cfe565b73ffffffffffffffffffffffffffffffffffffffff16146116905761165461159e565b6040517f118cdaa70000000000000000000000000000000000000000000000000000000081526004016116879190612cb0565b60405180910390fd5b565b6000600b60009054906101000a900473ffffffffffffffffffffffffffffffffffffffff16905081600b60006101000a81548173ffffffffffffffffffffffffffffffffffffffff021916908373ffffffffffffffffffffffffffffffffffffffff1602179055508173ffffffffffffffffffffffffffffffffffffffff168173ffffffffffffffffffffffffffffffffffffffff167f8be0079c531659141344cd1fd0a4f28419497f9722a3daafe3b4186f6b6457e060405160405180910390a35050565b600073ffffffffffffffffffffffffffffffffffffffff168273ffffffffffffffffffffffffffffffffffffffff16036117c957816040517f5b08ba180000000000000000000000000000000000000000000000000000000081526004016117c09190612cb0565b60405180910390fd5b80600560008573ffffffffffffffffffffffffffffffffffffffff1673ffffffffffffffffffffffffffffffffffffffff16815260200190815260200160002060008473ffffffffffffffffffffffffffffffffffffffff1673ffffffffffffffffffffffffffffffffffffffff16815260200190815260200160002060006101000a81548160ff0219169083151502179055508173ffffffffffffffffffffffffffffffffffffffff168373ffffffffffffffffffffffffffffffffffffffff167f17307eab39ab6107e8899845ad3d59bd9653f200f220920489ca2b5937696c31836040516118ba9190612b3f565b60405180910390a3505050565b60008373ffffffffffffffffffffffffffffffffffffffff163b1115611a71578273ffffffffffffffffffffffffffffffffffffffff1663150b7a02868685856040518563ffffffff1660e01b81526004016119269493929190613ad9565b6020604051808303816000875af192505050801561196257506040513d601f19601f8201168201806040525081019061195f9190613b3a565b60015b6119e6573d8060008114611992576040519150601f19603f3d011682016040523d82523d6000602084013e611997565b606091505b5060008151036119de57836040517f64a0ae920000000000000000000000000000000000000000000000000000000081526004016119d59190612cb0565b60405180910390fd5b805181602001fd5b63150b7a0260e01b7bffffffffffffffffffffffffffffffffffffffffffffffffffffffff1916817bffffffffffffffffffffffffffffffffffffffffffffffffffffffff191614611a6f57836040517f64a0ae92000000000000000000000000000000000000000000000000000000008152600401611a669190612cb0565b60405180910390fd5b505b5050505050565b611a92828260405180602001604052806000815250611f48565b5050565b80600660008481526020019081526020016000209081611ab6919061397b565b507ff8e1a15aba9398e019f0b49df1a4fde98ee17ae345cb5f6b5e2c27f5033e8ce782604051611ae69190612d46565b60405180910390a15050565b6060611afd826114d9565b506000600660008481526020019081526020016000208054611b1e90613280565b80601f0160208091040260200160405190810160405280929190818152602001828054611b4a90613280565b8015611b975780601f10611b6c57610100808354040283529160200191611b97565b820191906000526020600020905b815481529060010190602001808311611b7a57829003601f168201915b505050505090506000611ba8611f6c565b90506000815103611bbd578192505050611c00565b600082511115611bf2578082604051602001611bda929190613ba3565b60405160208183030381529060405292505050611c00565b611bfb84611f83565b925050505b919050565b6000634906490660e01b7bffffffffffffffffffffffffffffffffffffffffffffffffffffffff1916827bffffffffffffffffffffffffffffffffffffffffffffffffffffffff19161480611c5f5750611c5e82611fec565b5b9050919050565b8080611c9f5750600073ffffffffffffffffffffffffffffffffffffffff168273ffffffffffffffffffffffffffffffffffffffff1614155b15611dd3576000611caf846114d9565b9050600073ffffffffffffffffffffffffffffffffffffffff168373ffffffffffffffffffffffffffffffffffffffff1614158015611d1a57508273ffffffffffffffffffffffffffffffffffffffff168173ffffffffffffffffffffffffffffffffffffffff1614155b8015611d2d5750611d2b8184611312565b155b15611d6f57826040517fa9fbf51f000000000000000000000000000000000000000000000000000000008152600401611d669190612cb0565b60405180910390fd5b8115611dd157838573ffffffffffffffffffffffffffffffffffffffff168273ffffffffffffffffffffffffffffffffffffffff167f8c5be1e5ebec7d5bd14f71427d1e84f3dd0314c0f7b2291e5b200ac8c7c3b92560405160405180910390a45b505b836004600085815260200190815260200160002060006101000a81548173ffffffffffffffffffffffffffffffffffffffff021916908373ffffffffffffffffffffffffffffffffffffffff16021790555050505050565b600080611e398585856120ce565b9050600073ffffffffffffffffffffffffffffffffffffffff168173ffffffffffffffffffffffffffffffffffffffff1603611e7d57611e78846122e8565b611ebc565b8473ffffffffffffffffffffffffffffffffffffffff168173ffffffffffffffffffffffffffffffffffffffff1614611ebb57611eba8185612331565b5b5b600073ffffffffffffffffffffffffffffffffffffffff168573ffffffffffffffffffffffffffffffffffffffff1603611efe57611ef98461241c565b611f3d565b8473ffffffffffffffffffffffffffffffffffffffff168173ffffffffffffffffffffffffffffffffffffffff1614611f3c57611f3b85856124ed565b5b5b809150509392505050565b611f528383612578565b611f67611f5d61159e565b60008585856118c7565b505050565b606060405180602001604052806000815250905090565b6060611f8e826114d9565b506000611f99611f6c565b90506000815111611fb95760405180602001604052806000815250611fe4565b80611fc384612671565b604051602001611fd4929190613ba3565b6040516020818303038152906040525b915050919050565b60007f80ac58cd000000000000000000000000000000000000000000000000000000007bffffffffffffffffffffffffffffffffffffffffffffffffffffffff1916827bffffffffffffffffffffffffffffffffffffffffffffffffffffffff191614806120b757507f5b5e139f000000000000000000000000000000000000000000000000000000007bffffffffffffffffffffffffffffffffffffffffffffffffffffffff1916827bffffffffffffffffffffffffffffffffffffffffffffffffffffffff1916145b806120c757506120c68261273f565b5b9050919050565b6000806120da846115ce565b9050600073ffffffffffffffffffffffffffffffffffffffff168373ffffffffffffffffffffffffffffffffffffffff161461211c5761211b8184866127a9565b5b600073ffffffffffffffffffffffffffffffffffffffff168173ffffffffffffffffffffffffffffffffffffffff16146121ad5761215e600085600080611c66565b6001600360008373ffffffffffffffffffffffffffffffffffffffff1673ffffffffffffffffffffffffffffffffffffffff168152602001908152602001600020600082825403925050819055505b600073ffffffffffffffffffffffffffffffffffffffff168573ffffffffffffffffffffffffffffffffffffffff1614612230576001600360008773ffffffffffffffffffffffffffffffffffffffff1673ffffffffffffffffffffffffffffffffffffffff168152602001908152602001600020600082825401925050819055505b846002600086815260200190815260200160002060006101000a81548173ffffffffffffffffffffffffffffffffffffffff021916908373ffffffffffffffffffffffffffffffffffffffff160217905550838573ffffffffffffffffffffffffffffffffffffffff168273ffffffffffffffffffffffffffffffffffffffff167fddf252ad1be2c89b69c2b068fc378daa952ba7f163c4a11628f55a4df523b3ef60405160405180910390a4809150509392505050565b600980549050600a600083815260200190815260200160002081905550600981908060018154018082558091505060019003906000526020600020016000909190919091505550565b600061233c83610c30565b90506000600860008481526020019081526020016000205490506000600760008673ffffffffffffffffffffffffffffffffffffffff1673ffffffffffffffffffffffffffffffffffffffff16815260200190815260200160002090508282146123e85760008160008581526020019081526020016000205490508082600085815260200190815260200160002081905550826008600083815260200190815260200160002081905550505b6008600085815260200190815260200160002060009055806000848152602001908152602001600020600090555050505050565b600060016009805490506124309190613bc7565b90506000600a60008481526020019081526020016000205490506000600983815481106124605761245f6134c1565b5b906000526020600020015490508060098381548110612482576124816134c1565b5b906000526020600020018190555081600a600083815260200190815260200160002081905550600a60008581526020019081526020016000206000905560098054806124d1576124d0613bfb565b5b6001900381819060005260206000200160009055905550505050565b600060016124fa84610c30565b6125049190613bc7565b905081600760008573ffffffffffffffffffffffffffffffffffffffff1673ffffffffffffffffffffffffffffffffffffffff168152602001908152602001600020600083815260200190815260200160002081905550806008600084815260200190815260200160002081905550505050565b600073ffffffffffffffffffffffffffffffffffffffff168273ffffffffffffffffffffffffffffffffffffffff16036125ea5760006040517f64a0ae920000000000000000000000000000000000000000000000000000000081526004016125e19190612cb0565b60405180910390fd5b60006125f8838360006115b8565b9050600073ffffffffffffffffffffffffffffffffffffffff168173ffffffffffffffffffffffffffffffffffffffff161461266c5760006040517f73c6ac6e0000000000000000000000000000000000000000000000000000000081526004016126639190612cb0565b60405180910390fd5b505050565b6060600060016126808461286d565b01905060008167ffffffffffffffff81111561269f5761269e612f37565b5b6040519080825280601f01601f1916602001820160405280156126d15781602001600182028036833780820191505090505b509050600082602001820190505b600115612734578080600190039150507f3031323334353637383961626364656600000000000000000000000000000000600a86061a8153600a858161272857612727613c2a565b5b049450600085036126df575b819350505050919050565b60007f01ffc9a7000000000000000000000000000000000000000000000000000000007bffffffffffffffffffffffffffffffffffffffffffffffffffffffff1916827bffffffffffffffffffffffffffffffffffffffffffffffffffffffff1916149050919050565b6127b48383836129c0565b61286857600073ffffffffffffffffffffffffffffffffffffffff168373ffffffffffffffffffffffffffffffffffffffff160361282957806040517f7e2732890000000000000000000000000000000000000000000000000000000081526004016128209190612d46565b60405180910390fd5b81816040517f177e802f00000000000000000000000000000000000000000000000000000000815260040161285f9291906132e8565b60405180910390fd5b505050565b600080600090507a184f03e93ff9f4daa797ed6e38ed64bf6a1f01000000000000000083106128cb577a184f03e93ff9f4daa797ed6e38ed64bf6a1f01000000000000000083816128c1576128c0613c2a565b5b0492506040810190505b6d04ee2d6d415b85acef81000000008310612908576d04ee2d6d415b85acef810000000083816128fe576128fd613c2a565b5b0492506020810190505b662386f26fc10000831061293757662386f26fc10000838161292d5761292c613c2a565b5b0492506010810190505b6305f5e1008310612960576305f5e100838161295657612955613c2a565b5b0492506008810190505b612710831061298557612710838161297b5761297a613c2a565b5b0492506004810190505b606483106129a8576064838161299e5761299d613c2a565b5b0492506002810190505b600a83106129b7576001810190505b80915050919050565b60008073ffffffffffffffffffffffffffffffffffffffff168373ffffffffffffffffffffffffffffffffffffffff1614158015612a7857508273ffffffffffffffffffffffffffffffffffffffff168473ffffffffffffffffffffffffffffffffffffffff161480612a395750612a388484611312565b5b80612a7757508273ffffffffffffffffffffffffffffffffffffffff16612a5f83611561565b73ffffffffffffffffffffffffffffffffffffffff16145b5b90509392505050565b612a89613c59565b565b6000604051905090565b600080fd5b600080fd5b60007fffffffff0000000000000000000000000000000000000000000000000000000082169050919050565b612ad481612a9f565b8114612adf57600080fd5b50565b600081359050612af181612acb565b92915050565b600060208284031215612b0d57612b0c612a95565b5b6000612b1b84828501612ae2565b91505092915050565b60008115159050919050565b612b3981612b24565b82525050565b6000602082019050612b546000830184612b30565b92915050565b600081519050919050565b600082825260208201905092915050565b60005b83811015612b94578082015181840152602081019050612b79565b60008484015250505050565b6000601f19601f8301169050919050565b6000612bbc82612b5a565b612bc68185612b65565b9350612bd6818560208601612b76565b612bdf81612ba0565b840191505092915050565b60006020820190508181036000830152612c048184612bb1565b905092915050565b6000819050919050565b612c1f81612c0c565b8114612c2a57600080fd5b50565b600081359050612c3c81612c16565b92915050565b600060208284031215612c5857612c57612a95565b5b6000612c6684828501612c2d565b91505092915050565b600073ffffffffffffffffffffffffffffffffffffffff82169050919050565b6000612c9a82612c6f565b9050919050565b612caa81612c8f565b82525050565b6000602082019050612cc56000830184612ca1565b92915050565b612cd481612c8f565b8114612cdf57600080fd5b50565b600081359050612cf181612ccb565b92915050565b60008060408385031215612d0e57612d0d612a95565b5b6000612d1c85828601612ce2565b9250506020612d2d85828601612c2d565b9150509250929050565b612d4081612c0c565b82525050565b6000602082019050612d5b6000830184612d37565b92915050565b600080600060608486031215612d7a57612d79612a95565b5b6000612d8886828701612ce2565b9350506020612d9986828701612ce2565b9250506040612daa86828701612c2d565b9150509250925092565b600060208284031215612dca57612dc9612a95565b5b6000612dd884828501612ce2565b91505092915050565b612dea81612b24565b8114612df557600080fd5b50565b600081359050612e0781612de1565b92915050565b60008060408385031215612e2457612e23612a95565b5b6000612e3285828601612ce2565b9250506020612e4385828601612df8565b9150509250929050565b600081519050919050565b600082825260208201905092915050565b6000819050602082019050919050565b612e8281612c0c565b82525050565b6000612e948383612e79565b60208301905092915050565b6000602082019050919050565b6000612eb882612e4d565b612ec28185612e58565b9350612ecd83612e69565b8060005b83811015612efe578151612ee58882612e88565b9750612ef083612ea0565b925050600181019050612ed1565b5085935050505092915050565b60006020820190508181036000830152612f258184612ead565b905092915050565b600080fd5b600080fd5b7f4e487b7100000000000000000000000000000000000000000000000000000000600052604160045260246000fd5b612f6f82612ba0565b810181811067ffffffffffffffff82111715612f8e57612f8d612f37565b5b80604052505050565b6000612fa1612a8b565b9050612fad8282612f66565b919050565b600067ffffffffffffffff821115612fcd57612fcc612f37565b5b612fd682612ba0565b9050602081019050919050565b82818337600083830152505050565b600061300561300084612fb2565b612f97565b90508281526020810184848401111561302157613020612f32565b5b61302c848285612fe3565b509392505050565b600082601f83011261304957613048612f2d565b5b8135613059848260208601612ff2565b91505092915050565b6000806000806080858703121561307c5761307b612a95565b5b600061308a87828801612ce2565b945050602061309b87828801612ce2565b93505060406130ac87828801612c2d565b925050606085013567ffffffffffffffff8111156130cd576130cc612a9a565b5b6130d987828801613034565b91505092959194509250565b600067ffffffffffffffff821115613100576130ff612f37565b5b61310982612ba0565b9050602081019050919050565b6000613129613124846130e5565b612f97565b90508281526020810184848401111561314557613144612f32565b5b613150848285612fe3565b509392505050565b600082601f83011261316d5761316c612f2d565b5b813561317d848260208601613116565b91505092915050565b60008060006060848603121561319f5761319e612a95565b5b60006131ad86828701612ce2565b935050602084013567ffffffffffffffff8111156131ce576131cd612a9a565b5b6131da86828701613158565b925050604084013567ffffffffffffffff8111156131fb576131fa612a9a565b5b61320786828701613158565b9150509250925092565b6000806040838503121561322857613227612a95565b5b600061323685828601612ce2565b925050602061324785828601612ce2565b9150509250929050565b7f4e487b7100000000000000000000000000000000000000000000000000000000600052602260045260246000fd5b6000600282049050600182168061329857607f821691505b6020821081036132ab576132aa613251565b5b50919050565b60006060820190506132c66000830186612ca1565b6132d36020830185612d37565b6132e06040830184612ca1565b949350505050565b60006040820190506132fd6000830185612ca1565b61330a6020830184612d37565b9392505050565b7f466573746976616c20717565727920666f72206e6f6e6578697374656e74207460008201527f6f6b656e00000000000000000000000000000000000000000000000000000000602082015250565b600061336d602483612b65565b915061337882613311565b604082019050919050565b6000602082019050818103600083015261339c81613360565b9050919050565b7f4e6f2062616c616e636520746f20776974686472617700000000000000000000600082015250565b60006133d9601683612b65565b91506133e4826133a3565b602082019050919050565b60006020820190508181036000830152613408816133cc565b9050919050565b600081905092915050565b50565b600061342a60008361340f565b91506134358261341a565b600082019050919050565b600061344b8261341d565b9150819050919050565b7f5769746864726177616c206661696c6564000000000000000000000000000000600082015250565b600061348b601183612b65565b915061349682613455565b602082019050919050565b600060208201905081810360008301526134ba8161347e565b9050919050565b7f4e487b7100000000000000000000000000000000000000000000000000000000600052603260045260246000fd5b7f53656e64657220717565727920666f72206e6f6e6578697374656e7420746f6b60008201527f656e000000000000000000000000000000000000000000000000000000000000602082015250565b600061354c602283612b65565b9150613557826134f0565b604082019050919050565b6000602082019050818103600083015261357b8161353f565b9050919050565b7f43616e6e6f74206d696e7420746f207a65726f20616464726573730000000000600082015250565b60006135b8601b83612b65565b91506135c382613582565b602082019050919050565b600060208201905081810360008301526135e7816135ab565b9050919050565b7f546f6b656e205552492063616e6e6f7420626520656d70747900000000000000600082015250565b6000613624601983612b65565b915061362f826135ee565b602082019050919050565b6000602082019050818103600083015261365381613617565b9050919050565b7f466573746976616c20747970652063616e6e6f7420626520656d707479000000600082015250565b6000613690601d83612b65565b915061369b8261365a565b602082019050919050565b600060208201905081810360008301526136bf81613683565b9050919050565b7f496e73756666696369656e742066756e647320746f206d696e7420677265657460008201527f696e672063617264000000000000000000000000000000000000000000000000602082015250565b6000613722602883612b65565b915061372d826136c6565b604082019050919050565b6000602082019050818103600083015261375181613715565b9050919050565b7f4e487b7100000000000000000000000000000000000000000000000000000000600052601160045260246000fd5b600061379282612c0c565b91507fffffffffffffffffffffffffffffffffffffffffffffffffffffffffffffffff82036137c4576137c3613758565b5b600182019050919050565b60008190508160005260206000209050919050565b60006020601f8301049050919050565b600082821b905092915050565b6000600883026138317fffffffffffffffffffffffffffffffffffffffffffffffffffffffffffffffff826137f4565b61383b86836137f4565b95508019841693508086168417925050509392505050565b6000819050919050565b600061387861387361386e84612c0c565b613853565b612c0c565b9050919050565b6000819050919050565b6138928361385d565b6138a661389e8261387f565b848454613801565b825550505050565b600090565b6138bb6138ae565b6138c6818484613889565b505050565b5b818110156138ea576138df6000826138b3565b6001810190506138cc565b5050565b601f82111561392f57613900816137cf565b613909846137e4565b81016020851015613918578190505b61392c613924856137e4565b8301826138cb565b50505b505050565b600082821c905092915050565b600061395260001984600802613934565b1980831691505092915050565b600061396b8383613941565b9150826002028217905092915050565b61398482612b5a565b67ffffffffffffffff81111561399d5761399c612f37565b5b6139a78254613280565b6139b28282856138ee565b600060209050601f8311600181146139e557600084156139d3578287015190505b6139dd858261395f565b865550613a45565b601f1984166139f3866137cf565b60005b82811015613a1b578489015182556001820191506020850194506020810190506139f6565b86831015613a385784890151613a34601f891682613941565b8355505b6001600288020188555050505b505050505050565b60006040820190508181036000830152613a678185612bb1565b90508181036020830152613a7b8184612bb1565b90509392505050565b600081519050919050565b600082825260208201905092915050565b6000613aab82613a84565b613ab58185613a8f565b9350613ac5818560208601612b76565b613ace81612ba0565b840191505092915050565b6000608082019050613aee6000830187612ca1565b613afb6020830186612ca1565b613b086040830185612d37565b8181036060830152613b1a8184613aa0565b905095945050505050565b600081519050613b3481612acb565b92915050565b600060208284031215613b5057613b4f612a95565b5b6000613b5e84828501613b25565b91505092915050565b600081905092915050565b6000613b7d82612b5a565b613b878185613b67565b9350613b97818560208601612b76565b80840191505092915050565b6000613baf8285613b72565b9150613bbb8284613b72565b91508190509392505050565b6000613bd282612c0c565b9150613bdd83612c0c565b9250828203905081811115613bf557613bf4613758565b5b92915050565b7f4e487b7100000000000000000000000000000000000000000000000000000000600052603160045260246000fd5b7f4e487b7100000000000000000000000000000000000000000000000000000000600052601260045260246000fd5b7f4e487b7100000000000000000000000000000000000000000000000000000000600052605160045260246000fdfea26469706673582212200c78d781db72ef38a15f82857f7ee87a7a88482f121c164954b02e8709cdcdac64736f6c634300081800334465706c6f79696e6720466573746976616c204772656574696e6773204e465420436f6e7472616374",
    "linkReferences": {},
    "deployedLinkReferences": {}
}